{
  "contractName": "CharityCore",
  "abi": [
    {
      "inputs": [
        {
          "internalType": "address",
          "name": "_donorCoinAddress",
          "type": "address"
        }
      ],
      "stateMutability": "nonpayable",
      "type": "constructor"
    },
    {
      "anonymous": false,
      "inputs": [
        {
          "indexed": true,
          "internalType": "address",
          "name": "oldAdmin",
          "type": "address"
        },
        {
          "indexed": true,
          "internalType": "address",
          "name": "newAdmin",
          "type": "address"
        }
      ],
      "name": "AdminChanged",
      "type": "event"
    },
    {
      "anonymous": false,
      "inputs": [
        {
          "indexed": true,
          "internalType": "uint256",
          "name": "id",
          "type": "uint256"
        },
        {
          "indexed": false,
          "internalType": "string",
          "name": "name",
          "type": "string"
        },
        {
          "indexed": false,
          "internalType": "uint256",
          "name": "goal",
          "type": "uint256"
        }
      ],
      "name": "CampaignAdded",
      "type": "event"
    },
    {
      "anonymous": false,
      "inputs": [
        {
          "indexed": true,
          "internalType": "uint256",
          "name": "id",
          "type": "uint256"
        },
        {
          "indexed": false,
          "internalType": "string",
          "name": "name",
          "type": "string"
        },
        {
          "indexed": false,
          "internalType": "uint256",
          "name": "goal",
          "type": "uint256"
        }
      ],
      "name": "CampaignUpdated",
      "type": "event"
    },
    {
      "anonymous": false,
      "inputs": [
        {
          "indexed": true,
          "internalType": "address",
          "name": "donor",
          "type": "address"
        },
        {
          "indexed": true,
          "internalType": "uint256",
          "name": "campaignId",
          "type": "uint256"
        },
        {
          "indexed": false,
          "internalType": "uint256",
          "name": "amount",
          "type": "uint256"
        }
      ],
      "name": "DonationReceived",
      "type": "event"
    },
    {
      "anonymous": false,
      "inputs": [],
      "name": "SystemPaused",
      "type": "event"
    },
    {
      "anonymous": false,
      "inputs": [],
      "name": "SystemResumed",
      "type": "event"
    },
    {
      "anonymous": false,
      "inputs": [
        {
          "indexed": true,
          "internalType": "address",
          "name": "user",
          "type": "address"
        },
        {
          "indexed": false,
          "internalType": "string",
          "name": "name",
          "type": "string"
        }
      ],
      "name": "UserRegistered",
      "type": "event"
    },
    {
      "inputs": [],
      "name": "admin",
      "outputs": [
        {
          "internalType": "address",
          "name": "",
          "type": "address"
        }
      ],
      "stateMutability": "view",
      "type": "function"
    },
    {
      "inputs": [
        {
          "internalType": "uint256",
          "name": "",
          "type": "uint256"
        }
      ],
      "name": "campaigns",
      "outputs": [
        {
          "internalType": "string",
          "name": "name",
          "type": "string"
        },
        {
          "internalType": "uint256",
          "name": "goal",
          "type": "uint256"
        },
        {
          "internalType": "uint256",
          "name": "raised",
          "type": "uint256"
        },
        {
          "internalType": "bool",
          "name": "active",
          "type": "bool"
        }
      ],
      "stateMutability": "view",
      "type": "function"
    },
    {
      "inputs": [],
      "name": "donorCoin",
      "outputs": [
        {
          "internalType": "contract IDonorCoin",
          "name": "",
          "type": "address"
        }
      ],
      "stateMutability": "view",
      "type": "function"
    },
    {
      "inputs": [
        {
          "internalType": "address",
          "name": "",
          "type": "address"
        }
      ],
      "name": "hasRegistered",
      "outputs": [
        {
          "internalType": "bool",
          "name": "",
          "type": "bool"
        }
      ],
      "stateMutability": "view",
      "type": "function"
    },
    {
      "inputs": [],
      "name": "paused",
      "outputs": [
        {
          "internalType": "bool",
          "name": "",
          "type": "bool"
        }
      ],
      "stateMutability": "view",
      "type": "function"
    },
    {
      "inputs": [
        {
          "internalType": "address",
          "name": "",
          "type": "address"
        }
      ],
      "name": "userNames",
      "outputs": [
        {
          "internalType": "string",
          "name": "",
          "type": "string"
        }
      ],
      "stateMutability": "view",
      "type": "function"
    },
    {
      "inputs": [],
      "name": "getAdmin",
      "outputs": [
        {
          "internalType": "address",
          "name": "",
          "type": "address"
        }
      ],
      "stateMutability": "view",
      "type": "function"
    },
    {
      "inputs": [
        {
          "internalType": "string",
          "name": "_name",
          "type": "string"
        },
        {
          "internalType": "uint256",
          "name": "_goal",
          "type": "uint256"
        }
      ],
      "name": "addCampaign",
      "outputs": [],
      "stateMutability": "nonpayable",
      "type": "function"
    },
    {
      "inputs": [
        {
          "internalType": "string[]",
          "name": "names",
          "type": "string[]"
        },
        {
          "internalType": "uint256[]",
          "name": "goals",
          "type": "uint256[]"
        }
      ],
      "name": "batchAdminOperations",
      "outputs": [],
      "stateMutability": "nonpayable",
      "type": "function"
    },
    {
      "inputs": [
        {
          "internalType": "address",
          "name": "_to",
          "type": "address"
        },
        {
          "internalType": "uint256",
          "name": "_amount",
          "type": "uint256"
        }
      ],
      "name": "mintDonorCoin",
      "outputs": [],
      "stateMutability": "nonpayable",
      "type": "function"
    },
    {
      "inputs": [],
      "name": "pause",
      "outputs": [],
      "stateMutability": "nonpayable",
      "type": "function"
    },
    {
      "inputs": [],
      "name": "resume",
      "outputs": [],
      "stateMutability": "nonpayable",
      "type": "function"
    },
    {
      "inputs": [
        {
          "internalType": "address",
          "name": "newAdmin",
          "type": "address"
        }
      ],
      "name": "transferOwnership",
      "outputs": [],
      "stateMutability": "nonpayable",
      "type": "function"
    },
    {
      "inputs": [
        {
          "internalType": "string",
          "name": "_name",
          "type": "string"
        }
      ],
      "name": "registerUser",
      "outputs": [],
      "stateMutability": "nonpayable",
      "type": "function"
    },
    {
      "inputs": [
        {
          "internalType": "uint256",
          "name": "_campaignId",
          "type": "uint256"
        },
        {
          "internalType": "uint256",
          "name": "_amount",
          "type": "uint256"
        }
      ],
      "name": "donate",
      "outputs": [],
      "stateMutability": "nonpayable",
      "type": "function"
    },
    {
      "inputs": [],
      "name": "getCampaignsCount",
      "outputs": [
        {
          "internalType": "uint256",
          "name": "",
          "type": "uint256"
        }
      ],
      "stateMutability": "view",
      "type": "function"
    },
    {
      "inputs": [
        {
          "internalType": "uint256",
          "name": "_id",
          "type": "uint256"
        }
      ],
      "name": "getCampaignDetails",
      "outputs": [
        {
          "internalType": "string",
          "name": "",
          "type": "string"
        },
        {
          "internalType": "uint256",
          "name": "",
          "type": "uint256"
        },
        {
          "internalType": "uint256",
          "name": "",
          "type": "uint256"
        },
        {
          "internalType": "bool",
          "name": "",
          "type": "bool"
        }
      ],
      "stateMutability": "view",
      "type": "function"
    }
  ],
  "bytecode": "0x60806040523480156200001157600080fd5b506040516200263f3803806200263f833981810160405281019062000037919062000143565b336000806101000a81548173ffffffffffffffffffffffffffffffffffffffff021916908373ffffffffffffffffffffffffffffffffffffffff16021790555060008060146101000a81548160ff02191690831515021790555080600160006101000a81548173ffffffffffffffffffffffffffffffffffffffff021916908373ffffffffffffffffffffffffffffffffffffffff1602179055505062000175565b600080fd5b600073ffffffffffffffffffffffffffffffffffffffff82169050919050565b60006200010b82620000de565b9050919050565b6200011d81620000fe565b81146200012957600080fd5b50565b6000815190506200013d8162000112565b92915050565b6000602082840312156200015c576200015b620000d9565b5b60006200016c848285016200012c565b91505092915050565b6124ba80620001856000396000f3fe608060405234801561001057600080fd5b506004361061010b5760003560e01c8063704f1b94116100a25780639fc32cd0116100715780639fc32cd01461026f578063a0d035261461028b578063d993de62146102bb578063f2fde38b146102ee578063f851a4401461030a5761010b565b8063704f1b94146101fb5780637e6253da146102175780637f281635146102355780638456cb59146102655761010b565b8063141961bc116100de578063141961bc1461016e5780631ccebf41146101a15780635c975abb146101bf5780636e9960c3146101dd5761010b565b8063046f7da2146101105780630ab5730c1461011a5780630cdd53f6146101365780630eb6668714610152575b600080fd5b610118610328565b005b610134600480360381019061012f91906116a9565b6103fe565b005b610150600480360381019061014b9190611721565b6105ed565b005b61016c60048036038101906101679190611761565b6108f5565b005b610188600480360381019061018391906117bd565b610ab2565b6040516101989493929190611893565b60405180910390f35b6101a9610b87565b6040516101b6919061195e565b60405180910390f35b6101c7610bad565b6040516101d49190611979565b60405180910390f35b6101e5610bc0565b6040516101f291906119b5565b60405180910390f35b610215600480360381019061021091906119d0565b610be9565b005b61021f610d23565b60405161022c9190611a19565b60405180910390f35b61024f600480360381019061024a9190611a60565b610d30565b60405161025c9190611a8d565b60405180910390f35b61026d610dd0565b005b61028960048036038101906102849190611aaf565b610ea7565b005b6102a560048036038101906102a09190611a60565b610fc8565b6040516102b29190611979565b60405180910390f35b6102d560048036038101906102d091906117bd565b610fe8565b6040516102e59493929190611893565b60405180910390f35b61030860048036038101906103039190611a60565b611104565b005b61031261134c565b60405161031f91906119b5565b60405180910390f35b60008054906101000a900473ffffffffffffffffffffffffffffffffffffffff1673ffffffffffffffffffffffffffffffffffffffff163373ffffffffffffffffffffffffffffffffffffffff16146103b6576040517f08c379a00000000000000000000000000000000000000000000000000000000081526004016103ad90611b3b565b60405180910390fd5b60008060146101000a81548160ff0219169083151502179055507f8405beb5718fa80e67847f8f4174dc9f80fed07680154149a25ce0cf3741835060405160405180910390a1565b60008054906101000a900473ffffffffffffffffffffffffffffffffffffffff1673ffffffffffffffffffffffffffffffffffffffff163373ffffffffffffffffffffffffffffffffffffffff161461048c576040517f08c379a000000000000000000000000000000000000000000000000000000000815260040161048390611b3b565b60405180910390fd5b80518251146104d0576040517f08c379a00000000000000000000000000000000000000000000000000000000081526004016104c790611ba7565b60405180910390fd5b60005b82518110156105e85760008382815181106104f1576104f0611bc7565b5b6020026020010151511161053a576040517f08c379a000000000000000000000000000000000000000000000000000000000815260040161053190611c42565b60405180910390fd5b600082828151811061054f5761054e611bc7565b5b602002602001015111610597576040517f08c379a000000000000000000000000000000000000000000000000000000000815260040161058e90611cae565b60405180910390fd5b6105d58382815181106105ad576105ac611bc7565b5b60200260200101518383815181106105c8576105c7611bc7565b5b60200260200101516108f5565b80806105e090611cfd565b9150506104d3565b505050565b600060149054906101000a900460ff161561063d576040517f08c379a000000000000000000000000000000000000000000000000000000000815260040161063490611db7565b60405180910390fd5b6002805490508210610684576040517f08c379a000000000000000000000000000000000000000000000000000000000815260040161067b90611e23565b60405180910390fd5b6002828154811061069857610697611bc7565b5b906000526020600020906004020160030160009054906101000a900460ff166106f6576040517f08c379a00000000000000000000000000000000000000000000000000000000081526004016106ed90611e8f565b60405180910390fd5b60006002838154811061070c5761070b611bc7565b5b9060005260206000209060040201905080600101548282600201546107319190611eaf565b1115610772576040517f08c379a000000000000000000000000000000000000000000000000000000000815260040161076990611f2f565b60405180910390fd5b6000600160009054906101000a900473ffffffffffffffffffffffffffffffffffffffff1673ffffffffffffffffffffffffffffffffffffffff166323b872dd3330866040518463ffffffff1660e01b81526004016107d393929190611f4f565b6020604051808303816000875af11580156107f2573d6000803e3d6000fd5b505050506040513d601f19601f820116820180604052508101906108169190611fb2565b905080610858576040517f08c379a000000000000000000000000000000000000000000000000000000000815260040161084f9061202b565b60405180910390fd5b8282600201600082825461086c9190611eaf565b9250508190555081600101548260020154036108a05760008260030160006101000a81548160ff0219169083151502179055505b833373ffffffffffffffffffffffffffffffffffffffff167f4b0304ab2f313234b1cea012339c8f8c3bf2c8bb357d81a579cfdb35d2e3d030856040516108e79190611a19565b60405180910390a350505050565b60008054906101000a900473ffffffffffffffffffffffffffffffffffffffff1673ffffffffffffffffffffffffffffffffffffffff163373ffffffffffffffffffffffffffffffffffffffff1614610983576040517f08c379a000000000000000000000000000000000000000000000000000000000815260040161097a90611b3b565b60405180910390fd5b60008251116109c7576040517f08c379a00000000000000000000000000000000000000000000000000000000081526004016109be90612097565b60405180910390fd5b60026040518060800160405280848152602001838152602001600081526020016001151581525090806001815401808255809150506001900390600052602060002090600402016000909190919091506000820151816000019081610a2c91906122b9565b50602082015181600101556040820151816002015560608201518160030160006101000a81548160ff02191690831515021790555050506001600280549050610a75919061238b565b7fa145363a6ad3e2a71781e219f32a2638892cb8d5a18d682f9cb096a0116e677c8383604051610aa69291906123bf565b60405180910390a25050565b60028181548110610ac257600080fd5b9060005260206000209060040201600091509050806000018054610ae5906120e6565b80601f0160208091040260200160405190810160405280929190818152602001828054610b11906120e6565b8015610b5e5780601f10610b3357610100808354040283529160200191610b5e565b820191906000526020600020905b815481529060010190602001808311610b4157829003601f168201915b5050505050908060010154908060020154908060030160009054906101000a900460ff16905084565b600160009054906101000a900473ffffffffffffffffffffffffffffffffffffffff1681565b600060149054906101000a900460ff1681565b60008060009054906101000a900473ffffffffffffffffffffffffffffffffffffffff16905090565b6000815111610c2d576040517f08c379a0000000000000000000000000000000000000000000000000000000008152600401610c2490612097565b60405180910390fd5b80600360003373ffffffffffffffffffffffffffffffffffffffff1673ffffffffffffffffffffffffffffffffffffffff1681526020019081526020016000209081610c7991906122b9565b506001600460003373ffffffffffffffffffffffffffffffffffffffff1673ffffffffffffffffffffffffffffffffffffffff16815260200190815260200160002060006101000a81548160ff0219169083151502179055503373ffffffffffffffffffffffffffffffffffffffff167f48cac28ad4dc618e15f4c2dd5e97751182f166de97b25618318b2112aa951a2f82604051610d189190611a8d565b60405180910390a250565b6000600280549050905090565b60036020528060005260406000206000915090508054610d4f906120e6565b80601f0160208091040260200160405190810160405280929190818152602001828054610d7b906120e6565b8015610dc85780601f10610d9d57610100808354040283529160200191610dc8565b820191906000526020600020905b815481529060010190602001808311610dab57829003601f168201915b505050505081565b60008054906101000a900473ffffffffffffffffffffffffffffffffffffffff1673ffffffffffffffffffffffffffffffffffffffff163373ffffffffffffffffffffffffffffffffffffffff1614610e5e576040517f08c379a0000000000000000000000000000000000000000000000000000000008152600401610e5590611b3b565b60405180910390fd5b6001600060146101000a81548160ff0219169083151502179055507f729e4c407dbe298cc36ff2ce4cfd0c52c502b062228f7ea860bdee574c50ff8160405160405180910390a1565b60008054906101000a900473ffffffffffffffffffffffffffffffffffffffff1673ffffffffffffffffffffffffffffffffffffffff163373ffffffffffffffffffffffffffffffffffffffff1614610f35576040517f08c379a0000000000000000000000000000000000000000000000000000000008152600401610f2c90611b3b565b60405180910390fd5b600160009054906101000a900473ffffffffffffffffffffffffffffffffffffffff1673ffffffffffffffffffffffffffffffffffffffff166340c10f1983836040518363ffffffff1660e01b8152600401610f929291906123ef565b600060405180830381600087803b158015610fac57600080fd5b505af1158015610fc0573d6000803e3d6000fd5b505050505050565b60046020528060005260406000206000915054906101000a900460ff1681565b60606000806000806002868154811061100457611003611bc7565b5b906000526020600020906004020160405180608001604052908160008201805461102d906120e6565b80601f0160208091040260200160405190810160405280929190818152602001828054611059906120e6565b80156110a65780601f1061107b576101008083540402835291602001916110a6565b820191906000526020600020905b81548152906001019060200180831161108957829003601f168201915b5050505050815260200160018201548152602001600282015481526020016003820160009054906101000a900460ff161515151581525050905080600001518160200151826040015183606001519450945094509450509193509193565b60008054906101000a900473ffffffffffffffffffffffffffffffffffffffff1673ffffffffffffffffffffffffffffffffffffffff163373ffffffffffffffffffffffffffffffffffffffff1614611192576040517f08c379a000000000000000000000000000000000000000000000000000000000815260040161118990611b3b565b60405180910390fd5b600073ffffffffffffffffffffffffffffffffffffffff168173ffffffffffffffffffffffffffffffffffffffff1603611201576040517f08c379a00000000000000000000000000000000000000000000000000000000081526004016111f890612464565b60405180910390fd5b60008060009054906101000a900473ffffffffffffffffffffffffffffffffffffffff169050816000806101000a81548173ffffffffffffffffffffffffffffffffffffffff021916908373ffffffffffffffffffffffffffffffffffffffff160217905550600160009054906101000a900473ffffffffffffffffffffffffffffffffffffffff1673ffffffffffffffffffffffffffffffffffffffff1663f2fde38b836040518263ffffffff1660e01b81526004016112c291906119b5565b600060405180830381600087803b1580156112dc57600080fd5b505af19250505080156112ed575060015b508173ffffffffffffffffffffffffffffffffffffffff168173ffffffffffffffffffffffffffffffffffffffff167f7e644d79422f17c01e4894b5f4f588d331ebfa28653d42ae832dc59e38c9798f60405160405180910390a35050565b60008054906101000a900473ffffffffffffffffffffffffffffffffffffffff1681565b6000604051905090565b600080fd5b600080fd5b600080fd5b6000601f19601f8301169050919050565b7f4e487b7100000000000000000000000000000000000000000000000000000000600052604160045260246000fd5b6113d282611389565b810181811067ffffffffffffffff821117156113f1576113f061139a565b5b80604052505050565b6000611404611370565b905061141082826113c9565b919050565b600067ffffffffffffffff8211156114305761142f61139a565b5b602082029050602081019050919050565b600080fd5b600080fd5b600067ffffffffffffffff8211156114665761146561139a565b5b61146f82611389565b9050602081019050919050565b82818337600083830152505050565b600061149e6114998461144b565b6113fa565b9050828152602081018484840111156114ba576114b9611446565b5b6114c584828561147c565b509392505050565b600082601f8301126114e2576114e1611384565b5b81356114f284826020860161148b565b91505092915050565b600061150e61150984611415565b6113fa565b9050808382526020820190506020840283018581111561153157611530611441565b5b835b8181101561157857803567ffffffffffffffff81111561155657611555611384565b5b80860161156389826114cd565b85526020850194505050602081019050611533565b5050509392505050565b600082601f83011261159757611596611384565b5b81356115a78482602086016114fb565b91505092915050565b600067ffffffffffffffff8211156115cb576115ca61139a565b5b602082029050602081019050919050565b6000819050919050565b6115ef816115dc565b81146115fa57600080fd5b50565b60008135905061160c816115e6565b92915050565b6000611625611620846115b0565b6113fa565b9050808382526020820190506020840283018581111561164857611647611441565b5b835b81811015611671578061165d88826115fd565b84526020840193505060208101905061164a565b5050509392505050565b600082601f8301126116905761168f611384565b5b81356116a0848260208601611612565b91505092915050565b600080604083850312156116c0576116bf61137a565b5b600083013567ffffffffffffffff8111156116de576116dd61137f565b5b6116ea85828601611582565b925050602083013567ffffffffffffffff81111561170b5761170a61137f565b5b6117178582860161167b565b9150509250929050565b600080604083850312156117385761173761137a565b5b6000611746858286016115fd565b9250506020611757858286016115fd565b9150509250929050565b600080604083850312156117785761177761137a565b5b600083013567ffffffffffffffff8111156117965761179561137f565b5b6117a2858286016114cd565b92505060206117b3858286016115fd565b9150509250929050565b6000602082840312156117d3576117d261137a565b5b60006117e1848285016115fd565b91505092915050565b600081519050919050565b600082825260208201905092915050565b60005b83811015611824578082015181840152602081019050611809565b60008484015250505050565b600061183b826117ea565b61184581856117f5565b9350611855818560208601611806565b61185e81611389565b840191505092915050565b611872816115dc565b82525050565b60008115159050919050565b61188d81611878565b82525050565b600060808201905081810360008301526118ad8187611830565b90506118bc6020830186611869565b6118c96040830185611869565b6118d66060830184611884565b95945050505050565b600073ffffffffffffffffffffffffffffffffffffffff82169050919050565b6000819050919050565b600061192461191f61191a846118df565b6118ff565b6118df565b9050919050565b600061193682611909565b9050919050565b60006119488261192b565b9050919050565b6119588161193d565b82525050565b6000602082019050611973600083018461194f565b92915050565b600060208201905061198e6000830184611884565b92915050565b600061199f826118df565b9050919050565b6119af81611994565b82525050565b60006020820190506119ca60008301846119a6565b92915050565b6000602082840312156119e6576119e561137a565b5b600082013567ffffffffffffffff811115611a0457611a0361137f565b5b611a10848285016114cd565b91505092915050565b6000602082019050611a2e6000830184611869565b92915050565b611a3d81611994565b8114611a4857600080fd5b50565b600081359050611a5a81611a34565b92915050565b600060208284031215611a7657611a7561137a565b5b6000611a8484828501611a4b565b91505092915050565b60006020820190508181036000830152611aa78184611830565b905092915050565b60008060408385031215611ac657611ac561137a565b5b6000611ad485828601611a4b565b9250506020611ae5858286016115fd565b9150509250929050565b7f41636365737320436f6e74726f6c3a2041646d696e206f6e6c79000000000000600082015250565b6000611b25601a836117f5565b9150611b3082611aef565b602082019050919050565b60006020820190508181036000830152611b5481611b18565b9050919050565b7f417272617973206c656e677468206d69736d6174636800000000000000000000600082015250565b6000611b916016836117f5565b9150611b9c82611b5b565b602082019050919050565b60006020820190508181036000830152611bc081611b84565b9050919050565b7f4e487b7100000000000000000000000000000000000000000000000000000000600052603260045260246000fd5b7f496e76616c6964206e616d6520696e2062617463680000000000000000000000600082015250565b6000611c2c6015836117f5565b9150611c3782611bf6565b602082019050919050565b60006020820190508181036000830152611c5b81611c1f565b9050919050565b7f476f616c206d7573742062652067726561746572207468616e20300000000000600082015250565b6000611c98601b836117f5565b9150611ca382611c62565b602082019050919050565b60006020820190508181036000830152611cc781611c8b565b9050919050565b7f4e487b7100000000000000000000000000000000000000000000000000000000600052601160045260246000fd5b6000611d08826115dc565b91507fffffffffffffffffffffffffffffffffffffffffffffffffffffffffffffffff8203611d3a57611d39611cce565b5b600182019050919050565b7f53797374656d2069732063757272656e746c79207061757365642028456d657260008201527f67656e63792053746f7029000000000000000000000000000000000000000000602082015250565b6000611da1602b836117f5565b9150611dac82611d45565b604082019050919050565b60006020820190508181036000830152611dd081611d94565b9050919050565b7f43616d706169676e20646f65736e277420657869737400000000000000000000600082015250565b6000611e0d6016836117f5565b9150611e1882611dd7565b602082019050919050565b60006020820190508181036000830152611e3c81611e00565b9050919050565b7f43616d706169676e20697320696e616374697665000000000000000000000000600082015250565b6000611e796014836117f5565b9150611e8482611e43565b602082019050919050565b60006020820190508181036000830152611ea881611e6c565b9050919050565b6000611eba826115dc565b9150611ec5836115dc565b9250828201905080821115611edd57611edc611cce565b5b92915050565b7f416d6f756e7420657863656564732072656d61696e696e6720676f616c210000600082015250565b6000611f19601e836117f5565b9150611f2482611ee3565b602082019050919050565b60006020820190508181036000830152611f4881611f0c565b9050919050565b6000606082019050611f6460008301866119a6565b611f7160208301856119a6565b611f7e6040830184611869565b949350505050565b611f8f81611878565b8114611f9a57600080fd5b50565b600081519050611fac81611f86565b92915050565b600060208284031215611fc857611fc761137a565b5b6000611fd684828501611f9d565b91505092915050565b7f546f6b656e207472616e73666572206661696c65640000000000000000000000600082015250565b60006120156015836117f5565b915061202082611fdf565b602082019050919050565b6000602082019050818103600083015261204481612008565b9050919050565b7f4e616d652063616e6e6f7420626520656d707479000000000000000000000000600082015250565b60006120816014836117f5565b915061208c8261204b565b602082019050919050565b600060208201905081810360008301526120b081612074565b9050919050565b7f4e487b7100000000000000000000000000000000000000000000000000000000600052602260045260246000fd5b600060028204905060018216806120fe57607f821691505b602082108103612111576121106120b7565b5b50919050565b60008190508160005260206000209050919050565b60006020601f8301049050919050565b600082821b905092915050565b6000600883026121797fffffffffffffffffffffffffffffffffffffffffffffffffffffffffffffffff8261213c565b612183868361213c565b95508019841693508086168417925050509392505050565b60006121b66121b16121ac846115dc565b6118ff565b6115dc565b9050919050565b6000819050919050565b6121d08361219b565b6121e46121dc826121bd565b848454612149565b825550505050565b600090565b6121f96121ec565b6122048184846121c7565b505050565b5b818110156122285761221d6000826121f1565b60018101905061220a565b5050565b601f82111561226d5761223e81612117565b6122478461212c565b81016020851015612256578190505b61226a6122628561212c565b830182612209565b50505b505050565b600082821c905092915050565b600061229060001984600802612272565b1980831691505092915050565b60006122a9838361227f565b9150826002028217905092915050565b6122c2826117ea565b67ffffffffffffffff8111156122db576122da61139a565b5b6122e582546120e6565b6122f082828561222c565b600060209050601f8311600181146123235760008415612311578287015190505b61231b858261229d565b865550612383565b601f19841661233186612117565b60005b8281101561235957848901518255600182019150602085019450602081019050612334565b868310156123765784890151612372601f89168261227f565b8355505b6001600288020188555050505b505050505050565b6000612396826115dc565b91506123a1836115dc565b92508282039050818111156123b9576123b8611cce565b5b92915050565b600060408201905081810360008301526123d98185611830565b90506123e86020830184611869565b9392505050565b600060408201905061240460008301856119a6565b6124116020830184611869565b9392505050565b7f496e76616c696420616464726573730000000000000000000000000000000000600082015250565b600061244e600f836117f5565b915061245982612418565b602082019050919050565b6000602082019050818103600083015261247d81612441565b905091905056fea2646970667358221220b81f98e41bbb7d5b492134daedbbde094a1aa2aa1677cb163898506bc7fa84af64736f6c63430008140033",
  "immutableReferences": {},
  "source": "// SPDX-License-Identifier: MIT\r\npragma solidity ^0.8.0;\r\n\r\n/**\r\n * @dev واجهة بسيطة للتعامل مع عقد DonorCoin الخارجي\r\n */\r\ninterface IDonorCoin {\r\n    function mint(address to, uint256 amount) external;\r\n    function transferFrom(address from, address to, uint256 amount) external returns (bool);\r\n    function transferOwnership(address newAdmin) external;\r\n}\r\n\r\ncontract CharityCore {\r\n    // --- Access Control Module ---\r\n    address public admin;\r\n    bool public paused;\r\n    IDonorCoin public donorCoin;\r\n\r\n    struct Campaign {\r\n        string name;\r\n        uint256 goal;\r\n        uint256 raised;\r\n        bool active;\r\n    }\r\n\r\n    Campaign[] public campaigns;\r\n    mapping(address => string) public userNames;\r\n    mapping(address => bool) public hasRegistered;\r\n\r\n    // Events للـ Live Alerts والـ History Reports\r\n    event CampaignAdded(uint256 indexed id, string name, uint256 goal);\r\n    event CampaignUpdated(uint256 indexed id, string name, uint256 goal);\r\n    event DonationReceived(address indexed donor, uint256 indexed campaignId, uint256 amount);\r\n    event UserRegistered(address indexed user, string name);\r\n    event SystemPaused();\r\n    event SystemResumed();\r\n    event AdminChanged(address indexed oldAdmin, address indexed newAdmin);\r\n\r\n    // --- Modifiers ---\r\n    modifier onlyOwner() {\r\n        require(msg.sender == admin, \"Access Control: Admin only\");\r\n        _;\r\n    }\r\n\r\n    modifier whenNotPaused() {\r\n        require(!paused, \"System is currently paused (Emergency Stop)\");\r\n        _;\r\n    }\r\n\r\n    constructor(address _donorCoinAddress) {\r\n        admin = msg.sender;\r\n        paused = false;\r\n        donorCoin = IDonorCoin(_donorCoinAddress);\r\n    }\r\n\r\n    // --- Role A: Admin Operations ---\r\n\r\n    function getAdmin() public view returns (address) {\r\n        return admin;\r\n    }\r\n\r\n    // إضافة حملة واحدة\r\n    function addCampaign(string memory _name, uint256 _goal) public onlyOwner {\r\n        require(bytes(_name).length > 0, \"Name cannot be empty\");\r\n        campaigns.push(Campaign(_name, _goal, 0, true));\r\n        emit CampaignAdded(campaigns.length - 1, _name, _goal);\r\n    }\r\n\r\n    // Batch Admin Operations: إضافة أو تحديث عدة حملات في Transaction واحد\r\n    function batchAdminOperations(string[] memory names, uint256[] memory goals) external onlyOwner {\r\n        require(names.length == goals.length, \"Arrays length mismatch\");\r\n        for (uint256 i = 0; i < names.length; i++) {\r\n            // التحقق من صحة البيانات (Requirement: reject if any entry is invalid)\r\n            require(bytes(names[i]).length > 0, \"Invalid name in batch\");\r\n            require(goals[i] > 0, \"Goal must be greater than 0\");\r\n            \r\n            addCampaign(names[i], goals[i]);\r\n        }\r\n    }\r\n\r\n    // وظيفة للآدمين لطباعة العملات عبر استدعاء العقد الخارجي\r\n    function mintDonorCoin(address _to, uint256 _amount) external onlyOwner {\r\n        donorCoin.mint(_to, _amount);\r\n    }\r\n\r\n    // Pause & Resume Switch\r\n    function pause() external onlyOwner {\r\n        paused = true;\r\n        emit SystemPaused();\r\n    }\r\n\r\n    function resume() external onlyOwner {\r\n        paused = false;\r\n        emit SystemResumed();\r\n    }\r\n\r\n    // Admin Ownership Transfer\r\n    function transferOwnership(address newAdmin) external onlyOwner {\r\n        require(newAdmin != address(0), \"Invalid address\");\r\n        address oldAdmin = admin;\r\n        admin = newAdmin;\r\n        \r\n        // محاولة نقل ملكية عقد العملة أيضاً إذا كان هذا العقد هو الآدمين هناك\r\n        try donorCoin.transferOwnership(newAdmin) {} catch {}\r\n        \r\n        emit AdminChanged(oldAdmin, newAdmin);\r\n    }\r\n\r\n    // --- Role B: User Operations ---\r\n\r\n    // User Registration\r\n    function registerUser(string memory _name) external {\r\n        require(bytes(_name).length > 0, \"Name cannot be empty\");\r\n        userNames[msg.sender] = _name;\r\n        hasRegistered[msg.sender] = true;\r\n        emit UserRegistered(msg.sender, _name);\r\n    }\r\n\r\n    // التبرع باستخدام العملة الخاصة (Donor Coin)\r\n    function donate(uint256 _campaignId, uint256 _amount) external whenNotPaused {\r\n        require(_campaignId < campaigns.length, \"Campaign doesn't exist\");\r\n        require(campaigns[_campaignId].active, \"Campaign is inactive\");\r\n        \r\n        Campaign storage campaign = campaigns[_campaignId];\r\n\r\n        // Ensure the donation doesn't push it over the limit\r\n        require(campaign.raised + _amount <= campaign.goal, \"Amount exceeds remaining goal!\");\r\n\r\n        bool success = donorCoin.transferFrom(msg.sender, address(this), _amount);\r\n        require(success, \"Token transfer failed\");\r\n\r\n        campaign.raised += _amount;\r\n\r\n        // Auto-close when exactly full\r\n        if (campaign.raised == campaign.goal) {\r\n            campaign.active = false;\r\n        }\r\n        \r\n        emit DonationReceived(msg.sender, _campaignId, _amount);\r\n    }\r\n\r\n    // --- Helpers ---\r\n    function getCampaignsCount() public view returns (uint256) {\r\n        return campaigns.length;\r\n    }\r\n\r\n    function getCampaignDetails(uint256 _id) public view returns (string memory, uint256, uint256, bool) {\r\n        Campaign memory c = campaigns[_id];\r\n        return (c.name, c.goal, c.raised, c.active);\r\n    }\r\n}\r\n",
  "sourcePath": "C:\\Users\\Matrix\\OneDrive\\Desktop\\project crypto\\contracts\\CharityCore.sol",
  "compiler": {
    "name": "solc",
    "version": "0.8.20+commit.a1b79de6.Emscripten.clang"
  },
  "schemaVersion": "3.4.16",
  "updatedAt": "2026-05-08T16:17:57.770Z",
  "devdoc": {
    "kind": "dev",
    "methods": {},
    "version": 1
  },
  "userdoc": {
    "kind": "user",
    "methods": {},
    "version": 1
  }
}